:020000040000FA
:040000000000742860
:040004000034003490
:08000800A00003088312A1000F
:100010000A08A2000B1D2A280B11FB3081001A08C8
:10002000783C031D142816289A0A182801309A00D3
:100030001B08053C031D1D281F289B0A2128013091
:100040009B008C0B6C28DF308C008D0B6C280730EC
:100050008D0042280B1C6C280B10061B3528191824
:10006000332819146C2819106C28861B3D28991800
:100070003B2899146C2899106C28061E4928861E66
:100080005B286C288E0A0E083C3C031D6C2800304F
:100090008E0019185328910A11083C3C031D6C2846
:1000A000003091005B28970A17083C3C031D6C2820
:1000B000003097006C2819186528940A1408183C19
:1000C000031D6C28003094006C28980A1808183C0E
:1000D000031D6C2800309800831222088A00210832
:1000E0008300A00E200E0900831685018601F030E2
:1000F00086008501A8308B008112811101158114C1
:100100000114831285018601DF308C0007308D00D9
:100110000F308E009100940001309A009B009701EF
:10012000980199019920A920B920C9200E088600BC
:1001300092280E0890008F010A3090020319A4281B
:10014000031CA6288F0A9C288F0A08000A309007F3
:1001500008001108930092010A3093020319B42891
:10016000031CB628920AAC28920A08000A309307AA
:1001700008001408960095010A3096020319C42855
:10018000031CC628950ABC28950A08000A30960761
:100190000800991C080011081702031D0800140824
:0801A0001802031D080008000D
:02400E00F13F80
:00000001FF
