:020000040000FA
:040000000000742860
:040004000034003490
:08000800A00003088312A1000F
:100010000A08A2000B1D2A280B11FB3081001A08C8
:10002000053C031D142816289A0A182801309A0046
:100030001B08783C031D1D281F289B0A212801301E
:100040009B008C0B6C28DF308C008D0B6C280730EC
:100050008D0042280B1C6C280B10061B3528191824
:10006000332819146C2819106C28861B3D28991800
:100070003B2899146C2899106C28061E4928861E66
:100080005B286C288E0A0E083C3C031D6C2800304F
:100090008E0019185328910A11083C3C031D6C2846
:1000A000003091005B28970A17083C3C031D6C2820
:1000B000003097006C2819186528940A1408183C19
:1000C000031D6C28003094006C28980A1808183C0E
:1000D000031D6C2800309800831222088A00210832
:1000E0008300A00E200E0900831685018601F030E2
:1000F00086008501A8308B008112811101158114C1
:100100000114831285018601DF308C0007308D00D9
:100110000F308E009100940001309A009B009C01EA
:100120009D019E019F01A001970198019901E62080
:10013000F62006211B08043C031816211B08043C6A
:10014000031916211B08063C03194B211B08093C07
:1001500003194B211B08093C0318AF284B211B082E
:100160000B3C031980211B080E3C031980211B083E
:100170000E3C0318BC2880211B08103C0319B52134
:100180001B08133C0319B5211B08133C0318C9288D
:10019000B5211B08153C0319EA211B08183C03195B
:1001A000EA211B08183C0318D628EA211B081A3C30
:1001B00003191F221B081D3C03191F221B081D3C8D
:1001C0000318E3281F228501860197280E08900056
:1001D0008F010A3090020319F128031CF3288F0ABB
:1001E000E9288F0A08000A309007080011089300D8
:1001F00092010A30930203190129031C0329920A70
:10020000F928920A08000A3093070800140896009B
:1002100095010A30960203191129031C1329950A26
:100220000929950A08000A309607080054221A087E
:10023000013C031D24291C080F3985001C08F039D6
:10024000A100210E860008001A08023C031D312976
:100250001D080F3985001D08F039A100210E860008
:1002600008001A08033C031D3E291E080F398500AB
:100270001E08F039A100210E860008001A08043C6F
:10028000031D08001F080F3985001F08F039A10061
:10029000210E860008005B221A08013C031D592923
:1002A0001C080F3985001C08F039A100210E8600BA
:1002B00008001A08023C031D66291D080F39850035
:1002C0001D08F039A100210E860008001A08033C21
:1002D000031D73291E080F3985001E08F039A1007F
:1002E000210E860008001A08043C031D08001F08A0
:1002F0000F3985001F08F039A100210E8600080083
:1003000054221A08013C031D8E291C080F39850050
:100310001C08F039A100210E860008001A08023CD2
:10032000031D9B291D080F3985001D08F039A10008
:10033000210E860008001A08033C031DA8291E0888
:100340000F3985001E08F039A100210E8600080033
:100350001A08043C031D08001F080F3985001F08F8
:10036000F039A100210E860008005B221A08013C2A
:10037000031DC3291C080F3985001C08F039A10092
:10038000210E860008001A08023C031DD0291D0812
:100390000F3985001D08F039A100210E86000800E4
:1003A0001A08033C031DDD291E080F3985001E08AD
:1003B000F039A100210E860008001A08043C031D34
:1003C00008001F080F3985001F08F039A100210E11
:1003D0008600080054221A08013C031DF8291C0855
:1003E0000F3985001C08F039A100210E8600080095
:1003F0001A08023C031D052A1D080F3985001D0837
:10040000F039A100210E860008001A08033C031DE4
:10041000122A1E080F3985001E08F039A100210E8E
:10042000860008001A08043C031D08001F080F3945
:1004300085001F08F039A100210E860008005B220C
:100440001A08013C031D2D2A1C080F3985001C08C1
:10045000F039A100210E860008001A08023C031D95
:100460003A2A1D080F3985001D08F039A100210E18
:10047000860008001A08033C031D472A1E080F398E
:1004800085001E08F039A100210E860008001A0818
:10049000043C031D08001F080F3985001F08F039B0
:1004A000A100210E86000800FF309C009F008130D3
:1004B0009D009E0008009C019D019E01FF309F0051
:1004C0000800991C080011081702031D08001408F1
:0804D0001802031D08000800DA
:02400E00F13F80
:00000001FF
