:020000040000FA
:040000000000742860
:040004000034003490
:08000800A00003088312A1000F
:100010000A08A2000B1D2A280B11F63081001A08CD
:10002000053C031D142816289A0A182801309A0046
:100030001B083C3C031D1D281F289B0A212801305A
:100040009B008C0B6C2870308C008D0B6C2807305B
:100050008D0042280B1C6C280B10061B3528191824
:10006000332819146C2819106C28861B3D28991800
:100070003B2899146C2899106C28061E4928861E66
:100080005B286C288E0A0E083C3C031D6C2800304F
:100090008E0019185328910A11083C3C031D6C2846
:1000A000003091005B28970A17083C3C031D6C2820
:1000B000003097006C2819186528940A1408183C19
:1000C000031D6C28003094006C28980A1808183C0E
:1000D000031D6C2800309800831222088A00210832
:1000E0008300A00E200E0900831685018601F030E2
:1000F00086008501A8308B008112811101158114C1
:100100000114831285018601DF308C0007308D00D9
:100110000F308E009100940001309A009B009C01EA
:100120009D019E019F01A0019701980199011B214A
:100130002B213B211B08043C03184B211B08053CC9
:10014000031DA528850186011A291B08093C0318EF
:10015000AA28B5281B08063C0318B0288021B5281A
:100160001B08063C031DB52880211B080A3C031D03
:10017000BC28850186011A291B080E3C0318C128DA
:10018000CC281B080B3C0318C728B521CC281B081A
:100190000B3C031DCC28B5211B080F3C031DD328A5
:1001A000850186011A291B08133C0318D828E32867
:1001B0001B08103C0318DE28EA21E3281B08103C2A
:1001C000031DE328EA211B08143C031DEA288501CE
:1001D00086011A291B08183C0318EF28FA281B0867
:1001E000153C0318F5281F22FA281B08153C031D8F
:1001F000FA281F221B08193C031D012985018601CD
:100200001A291B081D3C0318062911291B081A3C32
:1002100003180C29542211291B081A3C031D11290B
:1002200054221B081E3C031D1829850186011A292A
:100230008501860197280E0890008F010A309002F0
:1002400003192629031C28298F0A1E298F0A080052
:100250000A30900708001108930092010A309302B7
:1002600003193629031C3829920A2E29920A0800FC
:100270000A30930708001408960095010A30960288
:1002800003194629031C4829950A3E29950A0800A6
:100290000A309607080089221A08013C031D5929D3
:1002A0001C080F3985001C08F039A100210E8600BA
:1002B00008001A08023C031D66291D080F39850035
:1002C0001D08F039A100210E860008001A08033C21
:1002D000031D73291E080F3985001E08F039A1007F
:1002E000210E860008001A08043C031D08001F08A0
:1002F0000F3985001F08F039A100210E8600080083
:1003000090221A08013C031D8E291C080F39850014
:100310001C08F039A100210E860008001A08023CD2
:10032000031D9B291D080F3985001D08F039A10008
:10033000210E860008001A08033C031DA8291E0888
:100340000F3985001E08F039A100210E8600080033
:100350001A08043C031D08001F080F3985001F08F8
:10036000F039A100210E8600080089221A08013CFC
:10037000031DC3291C080F3985001C08F039A10092
:10038000210E860008001A08023C031DD0291D0812
:100390000F3985001D08F039A100210E86000800E4
:1003A0001A08033C031DDD291E080F3985001E08AD
:1003B000F039A100210E860008001A08043C031D34
:1003C00008001F080F3985001F08F039A100210E11
:1003D0008600080090221A08013C031DF8291C0819
:1003E0000F3985001C08F039A100210E8600080095
:1003F0001A08023C031D052A1D080F3985001D0837
:10040000F039A100210E860008001A08033C031DE4
:10041000122A1E080F3985001E08F039A100210E8E
:10042000860008001A08043C031D08001F080F3945
:1004300085001F08F039A100210E860008008922DE
:100440001A08013C031D2D2A1C080F3985001C08C1
:10045000F039A100210E860008001A08023C031D95
:100460003A2A1D080F3985001D08F039A100210E18
:10047000860008001A08033C031D472A1E080F398E
:1004800085001E08F039A100210E860008001A0818
:10049000043C031D08001F080F3985001F08F039B0
:1004A000A100210E8600080090221A08013C031DBD
:1004B000622A1C080F3985001C08F039A100210EA2
:1004C000860008001A08023C031D6F2A1D080F3918
:1004D00085001D08F039A100210E860008001A08C9
:1004E000033C031D7C2A1E080F3985001E08F039C5
:1004F000A100210E860008001A08043C031D080014
:100500001F080F3985001F08F039A100210E860051
:100510000800FF309C009F0081309D009E00080075
:100520009C019D019E01FF309F00080043309C000C
:1005300085309D0089309E0071309F000800423058
:100540009C0081309D0091309E006E309F0008001D
:10055000F8309C0008309D003F309E0008309F001E
:100560000800FA309C0091309D0091309E008E3042
:100570009F0008001E309C0031309D0051309E00CD
:100580008E309F00080080309C0090309D009E00BF
:10059000FF309F00080066309F009C0099309D004E
:1005A0009E00080071309C0089309D009E005730ED
:1005B0009F000800991C080011081702031D08007D
:0A05C00014081802031D08000800CB
:02400E00F13F80
:00000001FF
