:020000040000FA
:0400000000006E2866
:040004000034003490
:08000800A00003088312A1000F
:100010000A08A2000B1D2A280B11F83081001708CE
:10002000053C031D14281628970A1828013097004C
:1000300018083C3C031D1D281F28980A2128013060
:1000400098008C0B6628C8308C008D0B6628053014
:100050008D0040280B1C66280B10861B3B28FF30A8
:10006000A400A500A40B3228A50B322826183A2894
:1000700026143B282610861E4828061F5728662867
:100080008E0A0E083C3C031D662800308E004F2867
:10009000FF30A000A100A00B4B28A10B4B28910A18
:1000A00011083C3C031D6628003091005E28FF309B
:1000B000A200A300A20B5A28A30B5A28940A1408E2
:1000C000183C031D6628003094006628831222081D
:1000D0008A0021088300A00E200E090083168501E6
:1000E0008601E03086008501A8308B0081128111E5
:1000F000011581140114831285018601C8308C001A
:1001000005308D002D308E001730910001309400A5
:10011000013097009800A6019F0199019A019B0167
:100120009C019D012618152919212921392118081A
:10013000043C031849211808053C031DA228850129
:10014000860118291808093C0318A728B22818089E
:10015000063C0318AD288021B2281808063C031D70
:10016000B228802118080A3C031DB92885018601A0
:10017000182918080E3C0318BE28C92818080B3C7B
:100180000318C428B721C92818080B3C031DC92827
:10019000B72118080F3C031DD028850186011829B6
:1001A0001808133C0318D528E0281808103C031839
:1001B000DB28EE21E0281808103C031DE028EE2182
:1001C0001808143C031DE728850186011829180822
:1001D000183C0318EC28F7281808153C0318F228D7
:1001E0002522F7281808153C031DF7282522180892
:1001F000193C031DFE2885018601182918081D3C9D
:10020000031803290E2918081A3C031809295C222F
:100210000E2918081A3C031D0E295C2218081E3CE2
:1002200003181829850186011829FF3085008600EA
:1002300092280E0890008F010A3090020319242999
:10024000031C26298F0A1C298F0A08000A309007F0
:1002500008001108930092010A309302031934290F
:10026000031C3629920A2C29920A08000A309307A7
:1002700008001408960095010A30960203194429D3
:10028000031C4629950A3C29950A08000A3096075E
:10029000080015089F00E4221708013C031D592996
:1002A00019080F3985001908F0399E001E0E8600C6
:1002B00008001708023C031D66291A080F3985003B
:1002C0001A08F0399E001E0E860008001708033C2D
:1002D000031D73291B080F3985001B08F0399E0088
:1002E0001E0E860008001708043C031D08001C08A9
:1002F0000F3985001C08F0399E001E0E860008008C
:1003000016089F00E4221708013C031D90291908D4
:100310000F3985001908F0399E001E0E860008006E
:100320001708023C031D9D291A080F3985001A0879
:10033000F0399E001E0E860008001708033C031DBE
:10034000AA291B080F3985001B08F0399E001E0ED4
:10035000860008001708043C031D08001C080F391C
:1003600085001C08F0399E001E0E86000800120849
:100370009F00E4221708013C031DC72919080F3903
:1003800085001908F0399E001E0E86000800170827
:10039000023C031DD4291A080F3985001A08F039C8
:1003A0009E001E0E860008001708033C031DE1296D
:1003B0001B080F3985001B08F0399E001E0E8600B1
:1003C00008001708043C031D08001C080F398500AD
:1003D0001C08F0399E001E0E8600080013089F00BE
:1003E000E4221708013C031DFE2919080F39850076
:1003F0001908F0399E001E0E860008001708023CFE
:10040000031D0B2A1A080F3985001A08F0399E00BF
:100410001E0E860008001708033C031D182A1B083F
:100420000F3985001B08F0399E001E0E860008005B
:100430001708043C031D08001C080F3985001C0820
:10044000F0399E001E0E860008000F089F00E4226F
:100450001708013C031D352A19080F3985001908B2
:10046000F0399E001E0E860008001708023C031D8E
:10047000422A1A080F3985001A08F0399E001E0E0C
:10048000860008001708033C031D4F2A1B080F397C
:1004900085001B08F0399E001E0E86000800170814
:1004A000043C031D08001C080F3985001C08F039A6
:1004B0009E001E0E8600080010089F00E422170808
:1004C000013C031D6C2A19080F3985001908F03901
:1004D0009E001E0E860008001708023C031D792AA4
:1004E0001A080F3985001A08F0399E001E0E860082
:1004F00008001708033C031D862A1B080F398500D6
:100500001B08F0399E001E0E860008001708043CE8
:10051000031D08001C080F3985001C08F0399E00D7
:100520001E0E86000800FF3099009C0081309A0062
:100530009B00080099019A019B01FF309C00080074
:10054000C2309900A1309A0091309B008E309C00FF
:1005500008004230990081309A0089309B00763043
:100560009C0008001F30990010309A00FC309B005E
:1005700010309C0008005F30990089309A00893063
:100580009B0071309C000800783099008C309A00F4
:100590008A309B0071309C000800013099000930BE
:1005A0009A009B00FF309C00080066309C00990078
:1005B00099309A009B0008008E30990091309A0083
:1005C0009B00EA309C0008001F08003A03190D2B1D
:1005D0001F08013A03190F2B1F08023A0319112BA8
:1005E0001F08033A0319132B1F08043A0319152B8C
:1005F0001F08053A0319172B1F08063A0319192B70
:100600001F08073A03191B2B1F08083A03191D2B53
:100610001F08093A03191F2B212B932208009A2245
:100620000800A0220800A9220800B2220800BB226C
:100630000800C4220800CD220800D5220800DC22D0
:0406400008000800A6
:02400E00F23F7F
:00000001FF
