:020000040000FA
:040000000000742860
:040004000034003490
:08000800A00003088312A1000F
:100010000A08A2000B1D2A280B11F83081001A08CB
:10002000053C031D142816289A0A182801309A0046
:100030001B083C3C031D1D281F289B0A212801305A
:100040009B008C0B6C28C8308C008D0B6C28053005
:100050008D0042280B1C6C280B10061B3528191824
:10006000332819146C2819106C28861B3D28991800
:100070003B2899146C2899106C28061E4928861E66
:100080005B286C288E0A0E083C3C031D6C2800304F
:100090008E0019185328910A11083C3C031D6C2846
:1000A000003091005B28970A17083C3C031D6C2820
:1000B000003097006C2819186528940A1408183C19
:1000C000031D6C28003094006C28980A1808183C0E
:1000D000031D6C2800309800831222088A00210832
:1000E0008300A00E200E0900831685018601F030E2
:1000F000860086018501A0308B00811281110115D7
:1001000081140114831285018601C8308C000530EA
:100110008D000F308E009100940001309A009B00FA
:10012000A2019C019D019E019F01A00197019801E0
:1001300099011D212D213D211B08043C03184D214F
:100140001B08053C031DA728850186011C291B08E7
:10015000093C0318AC28B7281B08063C0318B22832
:100160008421B7281B08063C031DB72884211B08DF
:100170000A3C031DBE28850186011C291B080E3C74
:100180000318C328CE281B080B3C0318C928BB2121
:10019000CE281B080B3C031DCE28BB211B080F3C9F
:1001A000031DD528850186011C291B08133C031853
:1001B000DA28E5281B08103C0318E028F221E5287E
:1001C0001B08103C031DE528F2211B08143C031DED
:1001D000EC28850186011C291B08183C0318F1280E
:1001E000FC281B08153C0318F7282922FC281B08AB
:1001F000153C031DFC2829221B08193C031D03295B
:10020000850186011C291B081D3C03180829132998
:100210001B081A3C03180E29602213291B081A3CDC
:10022000031D132960221B081E3C031D1A2985018A
:1002300086011C298501860199280E0890008F01EE
:100240000A30900203192829031C2A298F0A202921
:100250008F0A08000A3090070800110893009201E5
:100260000A30930203193829031C3A29920A3029CB
:10027000920A08000A3093070800140896009501B6
:100280000A30960203194829031C4A29950A402975
:10029000950A08000A30960708001508A200E8220F
:1002A0001A08013C031D5D291C080F3985001C0834
:1002B000F039A100210E860008001A08023C031D37
:1002C0006A291D080F3985001D08F039A100210E8B
:1002D000860008001A08033C031D77291E080F3901
:1002E00085001E08F039A100210E860008001A08BA
:1002F000043C031D08001F080F3985001F08F03952
:10030000A100210E860008001608A200E8221A08A3
:10031000013C031D94291C080F3985001C08F03985
:10032000A100210E860008001A08023C031DA12925
:100330001D080F3985001D08F039A100210E860027
:1003400008001A08033C031DAE291E080F3985005A
:100350001E08F039A100210E860008001A08043C8E
:10036000031D08001F080F3985001F08F039A10080
:10037000210E860008001208A200E8221A08013C9B
:10038000031DCB291C080F3985001C08F039A1007A
:10039000210E860008001A08023C031DD8291D08FA
:1003A0000F3985001D08F039A100210E86000800D4
:1003B0001A08033C031DE5291E080F3985001E0895
:1003C000F039A100210E860008001A08043C031D24
:1003D00008001F080F3985001F08F039A100210E01
:1003E000860008001308A200E8221A08013C031D39
:1003F000022A1C080F3985001C08F039A100210EC3
:10040000860008001A08023C031D0F2A1D080F3938
:1004100085001D08F039A100210E860008001A0889
:10042000033C031D1C2A1E080F3985001E08F039E5
:10043000A100210E860008001A08043C031D0800D4
:100440001F080F3985001F08F039A100210E860012
:1004500008000F08A200E8221A08013C031D392AEF
:100460001C080F3985001C08F039A100210E8600F8
:1004700008001A08023C031D462A1D080F39850092
:100480001D08F039A100210E860008001A08033C5F
:10049000031D532A1E080F3985001E08F039A100DC
:1004A000210E860008001A08043C031D08001F08DE
:1004B0000F3985001F08F039A100210E86000800C1
:1004C0001008A200E8221A08013C031D702A1C082B
:1004D0000F3985001C08F039A100210E86000800A4
:1004E0001A08023C031D7D2A1D080F3985001D08CE
:1004F000F039A100210E860008001A08033C031DF4
:100500008A2A1E080F3985001E08F039A100210E25
:10051000860008001A08043C031D08001F080F3954
:1005200085001F08F039A100210E86000800FF3069
:100530009C009F0081309D009E0008009C019D0151
:100540009E01FF309F00080043309C0085309D00D5
:1005500089309E0071309F00080042309C0081303D
:100560009D0091309E006E309F000800F8309C0086
:1005700008309D003F309E0008309F000800FA3090
:100580009C0091309D0091309E008E309F000800AD
:100590001E309C0031309D0051309E008E309F00F7
:1005A000080080309C0090309D009E00FF309F002E
:1005B000080066309F009C0099309D009E00080056
:1005C00071309C0089309D009E0057309F000800CC
:1005D0002208003A0319112B2208013A0319132BA0
:1005E0002208023A0319152B2208033A0319172B84
:1005F0002208043A0319192B2208053A03191B2B68
:100600002208063A03191D2B2208073A03191F2B4B
:100610002208083A0319212B2208093A0319232B2F
:10062000252B972208009E220800A4220800AD2254
:100630000800B6220800BF220800C8220800D12204
:100640000800D9220800E02208000800991C0800D0
:1006500011081702031D080014081802031D0800E2
:02066000080090
:02400E00F23F7F
:00000001FF
