:020000040000FA
:0400000000003A289A
:040004000034003490
:08000800A00003088312A1000F
:100010000A08A2000B1D15280B113D3081008B151D
:100020008C0B322828308C001D280B1C32280B101A
:10003000061A2428861A2B2832288D0A0D083C3CE3
:10004000031D322800308D00900A10083C3C031D2F
:10005000322800309000930A1308183C031D322800
:1000600000309300831222088A0021088300A00E2A
:10007000200E0900831685018601F0308600850177
:10008000A8308B0081128111011581140114831293
:100090008501860128308C000F308D009000930080
:1000A0005620662076201208850050280D088F0003
:1000B0008E010A308F0203196128031C63288E0AFF
:1000C00059288E0A08000A308F070800100892008D
:1000D00091010A30920203197128031C7328910AB6
:1000E0006928910A08000A30920708001308950051
:1000F00094010A30950203198128031C8328940A6D
:0C0100007928940A08000A3095070800CE
:02400E00F13F80
:00000001FF
