:020000040000FA
:0400000000005E2876
:040004000034003490
:08000800A00003088312A1000F
:100010000A08A2000B1D14280B113D3081008C0B27
:10002000562828308C002C280B1C56280B10061B39
:100030001F2818181D281814562818105628861B13
:100040002728981825289814562898105628061EF0
:100050003328861E452856288D0A0D083C3C031D72
:10006000562800308D0018183D28900A10083C3C96
:10007000031D5628003090004528960A16083C3C7F
:10008000031D562800309600562818184F28930A4A
:100090001308183C031D5628003093005628970A71
:1000A0001708183C031D56280030970083122208B9
:1000B0008A0021088300A00E200E09008316850106
:1000C0008601F03086008501A8308B0081128111F5
:1000D00001158114011483128501860128308C00DA
:1000E0000F308D00900093009601970198018020B9
:1000F0009020A020B02013088600180885007728DB
:100100000D088F008E010A308F0203198B28031C03
:100110008D288E0A83288E0A08000A308F0708006F
:100120001008920091010A30920203199B28031CC7
:100130009D28910A9328910A08000A309207080026
:100140001308950094010A3095020319AB28031C8B
:10015000AD28940AA328940A08000A3095070800DD
:10016000981C080010081602031D08001308170247
:06017000031D0800080059
:02400E00F13F80
:00000001FF
