:020000040000FA
:0400000000006E2866
:040004000034003490
:08000800A00003088312A1000F
:100010000A08A2000B1D2A280B11F83081001708CE
:10002000053C031D14281628970A1828013097004C
:1000300018083C3C031D1D281F28980A2128013060
:1000400098008C0B6628C8308C008D0B6628053014
:100050008D0040280B1C66280B10861B3B28FF30A8
:10006000A400A500A40B3228A50B322826183A2894
:1000700026143B282610861E4828061F5728662867
:100080008E0A0E083C3C031D662800308E004F2867
:10009000FF30A000A100A00B4B28A10B4B28910A18
:1000A00011083C3C031D6628003091005E28FF309B
:1000B000A200A300A20B5A28A30B5A28940A1408E2
:1000C000183C031D6628003094006628831222081D
:1000D0008A0021088300A00E200E090083168501E6
:1000E0008601E03086008501A8308B0081128111E5
:1000F000011581140114831285018601C8308C001A
:1001000005308D002D308E001730910001309400A5
:10011000013097009800A6019F0199019A019B0167
:100120009C019D01261815291B212B213B21180814
:10013000043C03184B211808053C031DA228850127
:1001400086011A291808093C0318A728B22818089C
:10015000063C0318AD288221B2281808063C031D6E
:10016000B228822118080A3C031DB928850186019E
:100170001A2918080E3C0318BE28C92818080B3C79
:100180000318C428B921C92818080B3C031DC92825
:10019000B92118080F3C031DD028850186011A29B2
:1001A0001808133C0318D528E0281808103C031839
:1001B000DB28F021E0281808103C031DE028F0217E
:1001C0001808143C031DE728850186011A29180820
:1001D000183C0318EC28F7281808153C0318F228D7
:1001E0002722F7281808153C031DF728272218088E
:1001F000193C031DFE28850186011A2918081D3C9B
:10020000031803290E2918081A3C031809295E222D
:100210000E2918081A3C031D0E295E2218081E3CE0
:1002200003181A29850186011A290E1C1929E622AC
:100230001A29142392280E0890008F010A30900288
:1002400003192629031C28298F0A1E298F0A080052
:100250000A30900708001108930092010A309302B7
:1002600003193629031C3829920A2E29920A0800FC
:100270000A30930708001408960095010A30960288
:1002800003194629031C4829950A3E29950A0800A6
:100290000A309607080015089F0044231708013C00
:1002A000031D5B2919080F3985001908F0399E00D4
:1002B0001E0E860008001708023C031D68291A0854
:1002C0000F3985001A08F0399E001E0E86000800BE
:1002D0001708033C031D75291B080F3985001B08EF
:1002E000F0399E001E0E860008001708043C031D0E
:1002F00008001C080F3985001C08F0399E001E0EEE
:100300008600080016089F0044231708013C031DBF
:10031000922919080F3985001908F0399E001E0E20
:10032000860008001708023C031D9F291A080F3990
:1003300085001A08F0399E001E0E86000800170876
:10034000033C031DAC291B080F3985001B08F0393D
:100350009E001E0E860008001708043C031D0800BE
:100360001C080F3985001C08F0399E001E0E8600FF
:10037000080012089F0044231708013C031DC929E7
:1003800019080F3985001908F0399E001E0E8600E5
:1003900008001708023C031DD6291A080F398500EA
:1003A0001A08F0399E001E0E860008001708033C4C
:1003B000031DE3291B080F3985001B08F0399E0037
:1003C0001E0E860008001708043C031D08001C08C8
:1003D0000F3985001C08F0399E001E0E86000800AB
:1003E00013089F0044231708013C031D002A190825
:1003F0000F3985001908F0399E001E0E860008008E
:100400001708023C031D0D2A1A080F3985001A0827
:10041000F0399E001E0E860008001708033C031DDD
:100420001A2A1B080F3985001B08F0399E001E0E82
:10043000860008001708043C031D08001C080F393B
:1004400085001C08F0399E001E0E860008000F086B
:100450009F0044231708013C031D372A19080F3950
:1004600085001908F0399E001E0E86000800170846
:10047000023C031D442A1A080F3985001A08F03976
:100480009E001E0E860008001708033C031D512A1B
:100490001B080F3985001B08F0399E001E0E8600D0
:1004A00008001708043C031D08001C080F398500CC
:1004B0001C08F0399E001E0E8600080010089F00E0
:1004C00044231708013C031D6E2A19080F398500C3
:1004D0001908F0399E001E0E860008001708023C1D
:1004E000031D7B2A1A080F3985001A08F0399E006F
:1004F0001E0E860008001708033C031D882A1B08EF
:100500000F3985001B08F0399E001E0E860008007A
:100510001708043C031D08001C080F3985001C083F
:10052000F0399E001E0E86000800FF3099009C00E6
:1005300081309A009B00080099019A019B01FF30CD
:100540009C000800C2309900A1309A0091309B00B5
:100550008E309C0008004230990081309A0089302A
:100560009B0076309C0008001F30990010309A00E4
:10057000FC309B0010309C0008005F3099008930EF
:100580009A0089309B0071309C00080078309900F7
:100590008C309A008A309B0071309C00080001303A
:1005A000990009309A009B00FF309C0008006630DB
:1005B0009C00990099309A009B0008008E309900A9
:1005C00091309A009B00EA309C0008001808013C1A
:1005D000031DEE2A01308600850108001808023C40
:1005E000031DF72A043086000A3085000800180829
:1005F000033C031D002B033086000E3085000800ED
:100600001808043C031D092B043086000A308500BD
:1006100008001808053C031D112B043085008601D5
:1006200008008501860108001808013C031D1D2BE8
:10063000083086000530850008001808023C031DBC
:10064000262B0C3086000B30850008001808033C70
:10065000031D2F2B0B3086000F3085000800180873
:10066000043C031D382B0C3086000B30850008003D
:100670001808053C031D412B093086000130850117
:1006800008008501860108001F08003A03196D2B38
:100690001F08013A03196F2B1F08023A0319712B27
:1006A0001F08033A0319732B1F08043A0319752B0B
:1006B0001F08053A0319772B1F08063A0319792BEF
:1006C0001F08073A03197B2B1F08083A03197D2BD3
:1006D0001F08093A03197F2B812B952208009C22C1
:1006E0000800A2220800AB220800B4220800BD22A4
:1006F0000800C6220800CF220800D7220800DE2208
:0407000008000800E5
:02400E00F23F7F
:00000001FF
