:020000040000FA
:0400000000006E2866
:040004000034003490
:08000800A00003088312A1000F
:100010000A08A2000B1D2A280B11F83081001708CE
:10002000053C031D14281628970A1828013097004C
:1000300018083C3C031D1D281F28980A2128013060
:1000400098008C0B6628C8308C008D0B6628053014
:100050008D0040280B1C66280B10861B3B28FF30A8
:10006000A300A400A30B3228A40B322825183A2899
:1000700025143B282510861E4828061F5728662869
:100080008E0A0E083C3C031D662800308E004F2867
:10009000FF309F00A0009F0B4B28A00B4B28910A1C
:1000A00011083C3C031D6628003091005E28FF309B
:1000B000A100A200A10B5A28A20B5A28940A1408E6
:1000C000183C031D6628003094006628831222081D
:1000D0008A0021088300A00E200E090083168501E6
:1000E0008601E03086008501A8308B0081128111E5
:1000F000011581140114831285018601C8308C001A
:1001000005308D002D308E001730910001309400A5
:10011000013097009800A5019E0199019A019B0169
:100120009C01251816291C212C213C211808043C6F
:1001300003184C211808053C031DA12885018601E0
:100140001B291808093C0318A628B1281808063CE2
:100150000318AC288321B1281808063C031DB128D8
:10016000832118080A3C031DB92808308500860140
:100170001B2918080E3C0318BE28C92818080B3C78
:100180000318C428BA21C92818080B3C031DC92824
:10019000BA2118080F3C031DD028850186011B29B0
:1001A0001808133C0318D528E0281808103C031839
:1001B000DB28F121E0281808103C031DE028F1217C
:1001C0001808143C031DE8280830850086011B2907
:1001D0001808183C0318ED28F8281808153C0318CF
:1001E000F3282822F8281808153C031DF82828228F
:1001F0001808193C031DFF28850186011B291808D2
:100200001D3C031804290F2918081A3C03180A2951
:100210005F220F2918081A3C031D0F295F221808B6
:100220001E3C03181B29850186011B290E1C1A2957
:10023000E7221B29152391280E0890008F010A3010
:10024000900203192729031C29298F0A1F298F0AC5
:1002500008000A30900708001108930092010A3044
:10026000930203193729031C3929920A2F29920A6C
:1002700008000A30930708001408960095010A3018
:10028000960203194729031C4929950A3F29950A13
:1002900008000A309607080015089E004523170835
:1002A000013C031D5C2919080F3985001908F03934
:1002B0009D001D0E860008001708023C031D6929D9
:1002C0001A080F3985001A08F0399D001D0E8600A6
:1002D00008001708033C031D76291B080F39850009
:1002E0001B08F0399D001D0E860008001708043C0D
:1002F000031D08001C080F3985001C08F0399D00FB
:100300001D0E8600080016089E0045231708013CB4
:10031000031D932919080F3985001908F0399D002C
:100320001D0E860008001708023C031DA0291A08AC
:100330000F3985001A08F0399D001D0E860008004F
:100340001708033C031DAD291B080F3985001B0846
:10035000F0399D001D0E860008001708043C031D9F
:1003600008001C080F3985001C08F0399D001D0E7F
:100370008600080012089E0045231708013C031D53
:10038000CA2919080F3985001908F0399D001D0E7A
:10039000860008001708023C031DD7291A080F39E8
:1003A00085001A08F0399D001D0E86000800170808
:1003B000033C031DE4291B080F3985001B08F03995
:1003C0009D001D0E860008001708043C031D080050
:1003D0001C080F3985001C08F0399D001D0E860091
:1003E000080013089E0045231708013C031D012A3D
:1003F00019080F3985001908F0399D001D0E860077
:1004000008001708023C031D0E2A1A080F39850040
:100410001A08F0399D001D0E860008001708033CDD
:10042000031D1B2A1B080F3985001B08F0399D008E
:100430001D0E860008001708043C031D08001C0858
:100440000F3985001C08F0399D001D0E860008003C
:100450000F089E0045231708013C031D382A190880
:100460000F3985001908F0399D001D0E860008001F
:100470001708023C031D452A1A080F3985001A087F
:10048000F0399D001D0E860008001708033C031D6F
:10049000522A1B080F3985001B08F0399D001D0EDC
:1004A000860008001708043C031D08001C080F39CB
:1004B00085001C08F0399D001D0E860008001008FC
:1004C0009E0045231708013C031D6F2A19080F39A8
:1004D00085001908F0399D001D0E860008001708D8
:1004E000023C031D7C2A1A080F3985001A08F039CE
:1004F0009D001D0E860008001708033C031D892A75
:100500001B080F3985001B08F0399D001D0E860061
:1005100008001708043C031D08001C080F3985005B
:100520001C08F0399D001D0E86000800FF30990060
:100530009C0081309A009B00080099019A019B0160
:10054000FF309C000800C2309900A1309A00913021
:100550009B008E309C0008004230990081309A0048
:1005600089309B0076309C0008001F3099001030C5
:100570009A00FC309B0010309C0008005F3099000E
:1005800089309A0089309B0071309C0008007830D7
:1005900099008C309A008A309B0071309C000800D2
:1005A0000130990009309A009B00FF309C00080040
:1005B00066309C00990099309A009B0008008E30AC
:1005C000990091309A009B00EA309C0008001808BE
:1005D000013C031DEF2A0130860085010800180840
:1005E000023C031DF82A043086000A30850008000A
:1005F0001808033C031D012B033086000E308500D4
:1006000008001808043C031D0A2B043086000A3039
:10061000850008001808053C031D122B04308500D6
:10062000860108008501860108001808013C031DA9
:100630001E2B083086000530850008001808023C93
:10064000031D272B0C3086000B308500080018088E
:10065000033C031D302B0B3086000F308500080053
:100660001808043C031D392B0C3086000B30850024
:1006700008001808053C031D422B09308600013094
:10068000850108008501860108001E08003A03194B
:100690006E2B1E08013A0319702B1E08023A03192B
:1006A000722B1E08033A0319742B1E08043A03190F
:1006B000762B1E08053A0319782B1E08063A0319F3
:1006C0007A2B1E08073A03197C2B1E08083A0319D7
:1006D0007E2B1E08093A0319802B822B96220800D4
:1006E0009D220800A3220800AC220800B5220800C1
:1006F000BE220800C7220800D0220800D822080025
:06070000DF2208000800E2
:02400E00F23F7F
:00000001FF
