:020000040000FA
:0400000000004A288A
:040004000034003490
:08000800A00003088312A1000F
:100010000A08A2000B1D15280B113D3081008B151D
:100020008C0B422828308C002D280B1C42280B10EA
:10003000061B202818181E281814422818104228B9
:10004000861B282898182628981442289810422899
:10005000061E3428861E3B2842288D0A0D083C3C8B
:10006000031D422800308D00900A10083C3C031DFF
:10007000422800309000930A1308183C031D4228C0
:1000800000309300831222088A0021088300A00E0A
:10009000200E0900831685018601F0308600850157
:1000A000A8308B0081128111011581140114831273
:1000B0008501860128308C000F308D009000930060
:1000C00096019701980169207920892013088500FD
:1000D00063280D088F008E010A308F0203197428DF
:1000E000031C76288E0A6C288E0A08000A308F07B7
:1000F00008001008920091010A3092020319842826
:10010000031C8628910A7C28910A08000A3092076D
:1001100008001308950094010A30950203199428E9
:10012000031C9628940A8C28940A08000A30950724
:020130000800C5
:02400E00F13F80
:00000001FF
